:100000003FC0AAC158C057C056C055C054C053C005
:1000100052C051C050C04FC04EC04DC04CC04BC06C
:100020004AC049C048C0040309041C037700770094
:1000300077002E00660069007300630068006C00A2
:100040002E00640065000E0355005300420061005D
:100050007300700012011001FF000008C016DC05DB
:1000600004010102000109021200010100801909C6
:100070000400000000000000FF88D8CD45AB8912C5
:1000800011241FBECFE5D4E0DEBFCDBF10E0A0E657
:10009000B0E0EEE9F9E102C005900D92A236B10799
:1000A000D9F711E0A2E6B0E001C01D92AC32B10771
:1000B000E1F766D572CCA4CF85B7836085BF8BB7D7
:1000C00080648BBF08951F93CF93DF9360910A01E3
:1000D000635067FD13C080910701CCE0D0E0C81BDE
:1000E000D109C25FDE4F809106018D3209F462C0F2
:1000F0008091620087FD84C010920A0180916000A7
:1001000084FF4AC0609161006F3F09F445C06930C7
:1001100070F16850609361008091FA0098E8892737
:100120008093FA0068E08091620087FD8BC0209187
:1001300008013091090186FF6DC0ABEFB0E080E0AF
:1001400090E0F901E80FF91FE491ED93019668172B
:10015000C1F76150862F90E06F5F0196820F931F69
:100160009093090180930801162F1C5F0BC0109219
:1001700061008091FA0098E889278093FA0066234D
:1001800091F614E08BEF90E0E3D01C3019F08FEF84
:10019000809361001093600094E186B3837031F422
:1001A0009150D9F710920B0110920501DF91CF9178
:1001B0001F910895683009F09FCF83EC8093FA0077
:1001C0008AE580936000109262008881807659F5FC
:1001D0009A81109203018981882309F043C010920B
:1001E000040122E083E091E09093090180930801EB
:1001F0008F81882319F49E81921708F1922F1FC0D6
:10020000CE01CFD48F3F51F1882309F475CF1092DE
:10021000610072CF962FD901EBEFF0E08D918193C1
:100220009150E1F796CFCE0195D6282F8F3F01F759
:10023000888187FD25C09FEF80E8809362009093BE
:1002400061005ACF8BEF90E0C7D5682F893008F452
:1002500053C08FEF809361001EE19CCF8EE18093AD
:1002600060004ACF853071F0863091F0883031F1EE
:10027000893061F18A3031F120E083E091E0B4CF40
:100280009E81DACF90930B0120E083E091E0ACCF28
:100290008B81813049F18230F9F0833029F020E000
:1002A00080E480936200A4CF992349F586E290E030
:1002B000909309018093080124E0F2CF21E08DE0C2
:1002C00091E092CF21E083E091E08ECF90930D01F9
:1002D00020E083E091E088CF86E690E090930901EA
:1002E0008093080122E1DCCF84E590E0909309013E
:1002F0008093080122E1D4CF182F1C5F43CF9130A7
:1003000051F0923061F686E490E090930901809379
:1003100008012EE0C5CF8AE290E090930901809316
:1003200008012CE1BDCFA82FB92F80E090E041E07B
:1003300050EA609530E009C02D9182279795879506
:1003400010F084279527305EC8F36F5FA8F30895F7
:10035000EADF8D939D930895CF93CFB7CF93C39545
:10036000B09BE9F7B09B09C0B09B07C0B09B05C02C
:10037000B09B03C0B09B01C0A1C0DF93C091070137
:10038000DD27C25FDE4FB09B02C0DF91EBCF2F9322
:100390000F931F9306B32FEF00FB20F94F933F936A
:1003A00016B34FEF012700FB21F93BE031C04E7F30
:1003B000012F16B3216028C0102F4D7F226000004E
:1003C00006B329C04B7F2460012F000016B32BC059
:1003D00016B3477F28602AC04F7E06B320612CC029
:1003E0004F7D16B320622FC04F7B06B3206432C00E
:1003F000422706B349934FEF0000102710FB20F966
:1004000016B31370C9F1297F91F2012700FB21F97E
:1004100006B3237F89F2315058F1102710FB22F9DF
:1004200016B3277E79F2012700FB23F92F7C81F296
:1004300006B3102710FB24F92F7971F200C016B310
:10044000012700FB25F92F7359F200C006B31027CE
:1004500010FB26F9223040F200C016B3012700FB42
:1004600027F9243028F64F77206816B30000F9CF1B
:1004700010E41ABF002717C03B503195C31BD04072
:1004800010E41ABF0881033CE9F00B34D9F0209145
:1004900005011981110F1213EDCF093641F10D320B
:1004A00011F0013E39F700930C013F914F911F91DC
:1004B0000F912F91DF91CAB7C6FD51CFCF91CFBF1A
:1004C000CF91189520910C01222379F310910A0104
:1004D000112311F5343012F130930A0120930601F3
:1004E000109107013BE0311B3093070117C00091C9
:1004F0000A0101308CF40AE53091600034FD10C02F
:1005000000936000CAEFD0E00FC02795A8F45150C7
:10051000A9F4220F0000F9CF4AE503C042ED01C063
:10052000432FC4E1D0E032E017B31360C09A17BB89
:1005300008B320E413E05F93012756E008BB27953A
:1005400020F4515021F4220FF9CF012756E000008A
:100550003B5A08BBD0F2279528F4515029F4220FBA
:100560000000F9CF012756E0279508BB20F4515031
:1005700021F4220FF9CF012756E02991332308BB3C
:1005800021F60C7F10910B01110FC651D04008BB12
:1005900011F01093050110E41ABF016017B31C7F1E
:1005A000402F4C7F5F9100C000C008BB17BB48BB09
:1005B0007CCF809127018DB9809124018EB9089557
:1005C000282F8823A1F0883008F042C082E893E009
:1005D0009093260180932501243019F12530B8F03D
:1005E000263099F1263068F12730F9F0089583EA32
:1005F00093E0909326018093250181E08093290167
:1006000082E58093270181E08093240108952230C0
:10061000A1F0233070F4213049F780EC8093290158
:10062000089588E180932901089583E0809329014A
:10063000089580E380932901089580E6809329013D
:1006400008958CE08093290108952093290108954D
:1006500083EA93E090932601809325011092240170
:1006600081E080932901293041F02A3050F428306C
:1006700039F683E580932701089582E58093270169
:1006800008952B3029F02C3009F0BACF8093240143
:1006900081E580932701089522B79091290182B7BF
:1006A000821B8917E0F3089587B38C6287BBC298D9
:1006B000C59892B72091290182B7891B8217E0F370
:1006C000C29A92B782B7891B8217E0F3C2988091D1
:1006D000250190912601835A934019F01092280128
:1006E0000895809127018DB9809124018EB91092CF
:1006F0002801089587B3837D87BB88B3837D88BB3A
:100700001DB80895582F2091290140E030E057FD91
:1007100016C0C398440FB4994F5FC59A92B782B779
:10072000891B8217E0F3C59892B782B7891B82179D
:10073000E0F33F5F383029F0550F57FFEACFC39AF7
:10074000E9CF842F08958FB9779BFECF8FB108959D
:100750000F931F930FE1E0912501F09126018CEAA0
:100760000995E0912501F091260183E50995E09135
:100770002501F091260180E00995182FE0912501CF
:10078000F091260180E00995133561F11DB822B77B
:100790009091290182B7821B8917E0F3C29A22B790
:1007A00082B7821B8917E0F3C29822B782B7821BF7
:1007B0008917E0F3E0912501F091260183E0E33A07
:1007C000F80721F0002351F00150C9CF8091270193
:1007D0008DB9809124018EB90023B1F781E01F917A
:1007E0000F91089580E01F910F9108959B01AC0136
:1007F00081E156954795379527958A95D1F7809150
:1008000028018217D9F020932801E0912501F09169
:1008100026018DE40995E0912501F091260180E003
:100820000995E0912501F091260180912801099513
:10083000E0912501F091260180E009950895EF925D
:10084000FF920F931F937B018C01D0DF8E2D81705F
:10085000880F880F880FE0912501F09126018062B2
:100860000995D801C70129E0B695A7959795879571
:100870002A95D1F7E0912501F09126010995169569
:100880000795F794E794E0912501F09126018E2DCC
:100890000995E0912501F091260180E009951F91CD
:1008A0000F91FF90EF9008950F931F938C01E091AB
:1008B0002501F091260180EA0995E0912501F0914A
:1008C0002601812F0995E0912501F0912601802FC5
:1008D0000995E0912501F091260180E009951F918D
:1008E0000F910895FF920F931F938C01F62EE091C4
:1008F0002501F091260180EC0995E0912501F09108
:100900002601812F0995E0912501F0912601802F84
:100910000995E0912501F09126018F2D09958EE131
:10092000B9D080E01F910F91FF900895CF92DF9290
:10093000EF92FF920F931F936B017C01142F56DFF0
:10094000E0912501F09126018CE40995D701C601BB
:1009500049E0B695A795979587954A95D1F7E09187
:100960002501F09126010995D701C601B695A795F5
:1009700097958795E0912501F09126010995E091E1
:100980002501F091260180E009951F3FF1F012B793
:100990000EE1C701B60153DF8F3F79F482B7811BA7
:1009A0008D33B8F312B70150A1F781E01F910F9179
:1009B000FF90EF90DF90CF90089580E01F910F910E
:1009C000FF90EF90DF90CF9008958FE063D080E0AC
:1009D0001F910F91FF90EF90DF90CF900895CF92ED
:1009E000DF92EF92FF920F931F936B017C01042F14
:1009F000122FFCDE8C2D8170880F880F880FE091FC
:100A00002501F091260180640995D701C60169E0AE
:100A1000B695A795979587956A95D1F7E0912501A9
:100A2000F09126010995D701C601B695A79597952E
:100A30008795E0912501F09126010995E091250126
:100A4000F0912601802F09951123C1F00F37F1F0A5
:100A500012B70EE1C701B601F2DE8F3779F482B723
:100A6000811B8D33B8F312B70150A1F781E01F91BC
:100A70000F91FF90EF90DF90CF90089580E01F914D
:100A80000F91FF90EF90DF90CF9008958FE002D00C
:100A900080E0F5CF382F882349F020E092B782B765
:100AA000891B8C33E0F32F5F2317C0F30895BD9AA1
:100AB000BB98C39A50E217D05A95E9F70895AC0154
:100AC00088E605D0842F03D089E601D0852F0FD08A
:100AD00028E030E0382780FB869506D02A95D1F7AC
:100AE00030FB02D000D06894BB98C39A16F0C3982C
:100AF000BB9AE0912A01F0912B013197F0F7C59A4A
:100B0000E6B3E3FBE0912A01F0912B013197F0F776
:100B1000C598089520ECE7DF46F42A95E1F780E0D8
:100B20002AE1E5DF2A95E9F7DECF28E030E0DBDFD8
:100B3000869587F938272A95D1F7D5DF27F9322707
:100B400072F3D1DFD0CFDB01742FB9DF84E2BFDFD6
:100B5000E1DF8D937A95D1F70895DB01742FAFDF34
:100B600083EFB5DF8DE1B3DF84E6B1DF8D91AFDFD9
:100B700082E7ADDFCFDF8078D9F77A9589F70895DE
:100B800012BA18BA8BEF81BB8FEF87BB17BA93E00D
:100B900094BB8EEF85BB93BF8FDA789494DA93DAA7
:100BA000FDCFEF92FF920F931F93CF93DF93E82E29
:100BB000792FF62E40916300443099F0453078F05B
:100BC000463009F4BEC0483009F472C00FEF802FE0
:100BD000DF91CF911F910F91FF90EF9008954130D9
:100BE000A9F7FF2009F480C08E2D972F9C01E90101
:100BF00000E054C08091740090917500892B09F039
:100C00007EC060917000709171008091720090912F
:100C10007300488121E0E3DE8091640090916500DB
:100C200001979093650080936400892BE1F4109202
:100C300063008091760081FF60C08091770090E032
:100C400020917400309175008217930709F455C004
:100C500060917000709171008091720090917300AA
:100C6000488164DE01E08091700090917100A09154
:100C70007200B09173000196A11DB11D80937000A8
:100C800090937100A0937200B093730021969E011F
:100C90002E192F1508F09BCF40916300413009F4C5
:100CA000A9CF809170009091710068811BDEB4CF54
:100CB000062F10E08091F80090E088589F4F6E2D2D
:100CC000A80151D68091F8008F0D8093F800809193
:100CD000640090916500801B910B90936500809358
:100CE0006400892B09F460C000E0802FDF91CF9170
:100CF0001F910F91FF90EF90089501E0B4CF6091A4
:100D00007000709171008091720090917300488121
:100D100020E065DE80917700815080937700882302
:100D200009F07ACF6091700070917100809172002B
:100D3000909173004881FADD809174008093770070
:100D40006BCF80917000909171006E2D4F2D05DF5B
:100D50008091700090917100A0917200B091730029
:100D60008F0D911DA11DB11D809370009093710096
:100D7000A0937200B093730080916400909165001D
:100D80008F1991099093650080936400892B09F075
:100D9000ABCF1092630001E0802FDF91CF911F91C4
:100DA0000F91FF90EF900895F9D2C7D3809176000C
:100DB00080FF04C08091F90081114FD588E790E051
:100DC0006091F800A7D38091760081FF03C081E095
:100DD0008093F900E7D2DDCFFF920F931F93CF935B
:100DE000DF93182FF92E062F40916300453009F448
:100DF00065C0463058F0473009F441C00FEF802FEE
:100E0000DF91CF911F910F91FF900895842F825011
:100E10008230A0F7662309F477C0812F9C01E90195
:100E200021C080917000909171003EDD8883809197
:100E3000700090917100A0917200B09173000196C2
:100E4000A11DB11D8093700090937100A09372005A
:100E5000B093730021969E01211B201708F051C00A
:100E6000409163004230E9F660917000709171002A
:100E70008091720090917300E2DC8883D8CF8ED28B
:100E80005CD38091F900882309F062C06091700002
:100E9000709171008091720090917300412F5F2DCD
:100EA000202F4DD4182F7ED21123B9F100E0802FCE
:100EB000DF91CF911F910F91FF9008958091700065
:100EC00090917100612F7F2D402F3DDE8091700049
:100ED00090917100A0917200B0917300800F911DEC
:100EE000A11DB11D8093700090937100A0937200BA
:100EF000B0937300802FDF91CF911F910F91FF90DE
:100F00000895083008F07BCF10926300802FDF91A6
:100F1000CF911F910F91FF90089580917000909153
:100F20007100A0917200B0917300800F911DA11DFE
:100F3000B11D8093700090937100A0937200B093E4
:100F40007300802FDF91CF911F910F91FF90089533
:100F500084D49CCF0F931F93CF93DF93EC018981AF
:100F6000813009F44DC0823009F4D4C0833009F4D3
:100F700054C0843009F4A7C0873009F47DC085309F
:100F800009F444C1863009F4F8C0883009F4C8C0B7
:100F9000893009F442C18A3009F452C18B3009F416
:100FA00067C18C3009F499C18D3009F4ADC18E3020
:100FB00009F4B1C18F3009F04CC19B8180E02A81D6
:100FC00030E0822B932BAA2797FDA095BA2F809310
:100FD000700090937100A0937200B09373009F8192
:100FE00080E02E8130E0822B932B909365008093DC
:100FF000640085E0809363008FEF08E610E030C066
:101000009A9B37C080916600DBDA10926700A9983E
:101010004BDB80E008E610E023C0E0912501F09171
:1010200026018A81099508E610E080936800E09126
:101030002501F09126018B81099580936900E0914B
:101040002501F09126018C81099580936A00E09139
:101050002501F09126018D81099580936B0084E034
:101060001093090100930801DF91CF911F910F9117
:10107000089585E0A5DAC9CF80916700882391F4AF
:101080009B8180E02A8130E0822B932BAA2797FD59
:10109000A095BA2F8093700090937100A093720076
:1010A000B09373009F8180E02E8130E0822B932BE0
:1010B000909365008093640083E0809363008FEFDA
:1010C00008E610E0CDCF80916700882391F49B81E2
:1010D00080E02A8130E0822B932BAA2797FDA095F0
:1010E000BA2F8093700090937100A0937200B09318
:1010F00073009F8180E02E8130E0822B932B9093B0
:1011000065008093640082E0809363008FEF08E6BF
:1011100010E0A6CFEFDAA99A80E008E610E0A0CFB1
:1011200080916700882391F49B8180E02A8130E0E0
:10113000822B932BAA2797FDA095BA2F809370003E
:1011400090937100A0937200B09373001092750099
:1011500010927400109276009F8180E02E8130E022
:10116000822B932B909365008093640084E080939E
:1011700063008FEF08E610E073CF8091670088234B
:1011800091F49B8180E02A8130E0822B932BAA2767
:1011900097FDA095BA2F8093700090937100A09353
:1011A0007200B09373008C8180937400109275006C
:1011B0008D81282F2F7020937600482F50E0407F9C
:1011C000507042955295507F5427407F542780910C
:1011D000740090917500480F591F5093750040930B
:1011E000740020FF02C0409377009F8180E02E8131
:1011F00030E0822B932B909365008093640081E014
:10120000809363008FEF08E610E02ACFA1DA08E6AA
:1012100010E08093680081E023CF81E08093670035
:101220008A819B81AC81BD81809370009093710015
:10123000A0937200B093730080E008E610E010CF36
:101240008A818093660008E610E01092680081E0D1
:1012500007CF8F3721F508E610E083E08093680020
:101260001092690010926A0010926B0084E0F8CE30
:101270009B8180E02A8130E0822B932B90932B017D
:1012800080932A01C29ABA9A83E004DCC298A99892
:1012900080E100DC0CDC80E008E610E0E1CE81318A
:1012A00009F445C0823109F44CC08431D1F59F81E5
:1012B00080E02E8130E0822B932B90936500809309
:1012C00064008A818093760088E0809363001092A6
:1012D000F8008FEF08E610E0C3CE80ECF8DB80E08A
:1012E000F6DB8AE0D7DBC29A85E0D4DBC29885E0E2
:1012F000D1DB87B3837D87BB88B3837D88BBA99A05
:1013000080E008E610E0ACCE05DC08E610E0809353
:10131000680081E0A5CE8A81DADB80E008E610E093
:101320009FCE8331A9F080E008E610E099CEC2D2CA
:1013300008E610E080936800882309F4A99881E00A
:101340008FCEA99A8A818ED180E008E610E088CEFF
:10135000BE016E5F7F4F80E790E044E050E003D332
:101360009F8180E02E8130E0822B932B909365004B
:101370008093640087E0809363008FEF08E610E0BD
:101380006FCE85B580710895C39A0895C398089566
:10139000C59AC29887B3846287BB0895F9DF89E054
:1013A00085BD0895F5DF89E185BD089588B38B7DFE
:1013B00088BB87B3846287BB0895C29887B38B7D4F
:1013C00087BBC598089586B390E0929582958F70FB
:1013D00089279F70892781700895082E829580251E
:1013E000082E86958695802590E00196959587959F
:1013F00081700895DF92EF92FF920F931F93CF9326
:10140000DF93D82EC398E62EFF2460FD65C088B315
:101410008B7D88BB87B3846287BB8CE0982F9A95BD
:10142000F1F7C39A8A95F1F711E0C0E0D0E00CE043
:1014300012C088B38B7D88BB87B3846287BB802F43
:101440008A95F1F7C39A802F8A95F1F7110F2196AB
:10145000C830D10531F0C398812F8D2151F398DF29
:10146000EECFC398E1FC3CC088B38B7D88BB87B3CB
:10147000846287BB8CE0982F9A95F1F7C39A8A957E
:10148000F1F7C398E701C470D070E2FC27C088B3BD
:101490008B7D88BB87B3846287BB8CE0982F9A953D
:1014A000F1F7C39A8A95F1F7C398CD2BD9F488B395
:1014B0008B7D88BB87B3846287BB8CE0982F9A951D
:1014C000F1F7C39A8A95F1F7DF91CF911F910F91B0
:1014D000FF90EF90DF9008955BDF9FCF59DFDDCF66
:1014E00057DFC8CF55DFE9CF282F082E82958025FA
:1014F000082E86958695802590E00196959587958E
:1015000080FF04C066E0822F75DF089564E0822FBB
:1015100071DF08951F93CF93DF93EC01162F66239D
:1015200021F08991E1DF1150E1F7DF91CF911F9117
:10153000089580E060E05EDF08958FEF6FEF5ADF7F
:1015400008950F931F93CF93DF93182FEB018823F8
:1015500009F467C00CE003C0115009F462C0C398DD
:101560002CDF802F8A95F1F7C39A86B3902F9A9536
:10157000F1F784FDF1CF31E080E040E050E09CE005
:10158000C398292F2A95F1F7C39AB499832B6CE05D
:10159000292F2A95F1F7330F4F5F5F4F48305105E0
:1015A00079F78883C398262F2A95F1F7C39A26B333
:1015B000362F3A95F1F7082E82958025082E8695CC
:1015C0008695802530E0329522952F7023273F7035
:1015D0002327217090E001969595879581709070F2
:1015E000281731F122E0C3988CE08A95F1F7C39A6D
:1015F000222311F4B49B1EC08CE0982F9A95F1F72A
:10160000C3988A95F1F7C39A222311F4B49B14C0AE
:101610008CE08A95F1F7822FDF91CF911F910F9186
:10162000089521E0822FDF91CF911F910F910895AE
:1016300020E0D9CF23E0E0CF23E0EACFDF93CF93C0
:1016400000D0CDB7DEB7811189E58A8381EC89832B
:10165000CE01019662E05EDF80E00F900F90CF91A7
:10166000DF9108951F93182F99DE67DF80E0E6DF92
:1016700087B3837C87BB88B3837C88BB113059F0E8
:10168000123039F4BB9AC39888EB9BE00197F1F7CD
:10169000C39A1F910895BB9AC3981F910895DF9331
:1016A000CF93CDB7DEB729970FB6F894DEBF0FBE44
:1016B000CDBF6E837F83888799878BE68983CE0130
:1016C0000296BE016A5F7F4F44E050E04CD1CE01EC
:1016D000019665E01FDF80E029960FB6F894DEBF23
:1016E0000FBECDBFCF91DF9108951F93DF93CF93AE
:1016F000CDB7DEB72A970FB6F894DEBF0FBECDBFC9
:101700006F83788789879A87142F8CE48983CE0129
:101710000296BE01695F7F4F44E050E024D11E83F2
:10172000CE01019666E0F6DE80E02A960FB6F894C8
:10173000DEBF0FBECDBFCF91DF911F9108958F9275
:101740009F92AF92BF92CF92DF92EF92FF920F9350
:101750001F93CF93DF935B016C01F42E952E022F24
:1017600010E074E1E72E822E8A946AEC71E080E04A
:1017700091E043E4BADFC601B50191DF023050F1D8
:1017800080EAB2DE882DB0DE84E2AEDE8F2D992DA8
:101790009C01E90105C021969E012F19201728F50B
:1017A00088ECBE01CEDE182F8823A9F3C2DEC5DE89
:1017B000C0DEC3DEEA94C9F6812FDF91CF911F917D
:1017C0000F91FF90EF90DF90CF90BF90AF909F90E0
:1017D0008F90089584E288DE0023C1F6AADEADDE94
:1017E000A8DEABDE112331F7E7CFA3DEA6DEA1DE54
:1017F000A4DEE2CF0F931F93DF93CF93CDB7DEB775
:1018000029970FB6F894DEBF0FBECDBF6E837F83DE
:10181000888799878A018CE08983CE010296BE0170
:101820006A5F7F4F44E050E09ED0CE01019665E0B4
:1018300071DE88ECB80185DE182F7BDE7EDE79DE76
:101840007CDE812F29960FB6F894DEBF0FBECDBF88
:10185000CF91DF911F910F910895EF92FF921F9307
:10186000DF93CF930F92CDB7DEB714E67E010894D5
:10187000E11CF11C02C01150A9F06FEC71E080E096
:1018800091E0A701B7DF8823B1F7898187FDF3CF06
:101890001092F90080E00F90CF91DF911F91FF909F
:1018A000EF90089584E00F90CF91DF911F91FF900A
:1018B000EF9008951F93DF93CF93CDB7DEB72997AD
:1018C0000FB6F894DEBF0FBECDBF89E085BD80E2C4
:1018D00083BDC39A88B38B7C88BB87B38C6087BB7E
:1018E00087B38F7C87BBC39888B38B7D88BB87B356
:1018F000846287BB8AE491E00197F1F749DDC39ADE
:1019000084E08A95F1F719DE18DE81E097DE80EE3B
:101910008983CE01029668E770E048E050E01AD073
:10192000CE01019669E0F6DD08DE82ECDDDD83E0C4
:10193000DBDD03DE92DF182F882309F433DD812FEE
:1019400029960FB6F894DEBF0FBECDBFCF91DF91C1
:101950001F910895FB01DC0102C005900D924150DA
:101960005040D8F708956817790768F4FB01DC0147
:10197000E40FF51FA40FB51F02C002900E92415054
:101980005040D8F7089500C0FB01DC0102C001906F
:0E1990000D9241505040D8F70895F894FFCFC3
:02199E005AFFEE
:00000001FF
